:100000000C9434000C943E000C943E000C943E0082
:100010000C943E000C943E000C943E000C943E0068
:100020000C943E000C943E000C943E000C943E0058
:100030000C943E000C943E000C943E000C943E0048
:100040000C943E000C943E000C943E000C943E0038
:100050000C943E000C943E000C943E000C943E0028
:100060000C943E000C943E0011241FBECFEFD8E04C
:10007000DEBFCDBF0E9440000C946A000C940000CB
:100080008CEF84B986E08AB920E231E013C086950E
:1000900081708327880F880F8BB95C9A15B84FEF52
:1000A00083ED90E3415080409040E1F700C00000B4
:1000B0001BB85C9A25B94FEF83ED90E34150804027
:1000C0009040E1F700C0000093B183B190FDDFCF15
:0800D00084E0E2CFF894FFCFB9
:00000001FF
